{
  "_format": "hh-sol-artifact-1",
  "contractName": "MRTNFToken",
  "sourceName": "contracts/nft/MRTNFToken.sol",
  "abi": [
    {
      "inputs": [
        {
          "internalType": "address",
          "name": "initialOwner",
          "type": "address"
        },
        {
          "internalType": "string",
          "name": "baseURI",
          "type": "string"
        },
        {
          "internalType": "uint256",
          "name": "maxSupply",
          "type": "uint256"
        },
        {
          "internalType": "uint256",
          "name": "mintPriceWei",
          "type": "uint256"
        },
        {
          "internalType": "address",
          "name": "royaltyReceiver",
          "type": "address"
        },
        {
          "internalType": "uint96",
          "name": "royaltyBps",
          "type": "uint96"
        }
      ],
      "stateMutability": "nonpayable",
      "type": "constructor"
    },
    {
      "inputs": [
        {
          "internalType": "uint256",
          "name": "numerator",
          "type": "uint256"
        },
        {
          "internalType": "uint256",
          "name": "denominator",
          "type": "uint256"
        }
      ],
      "name": "ERC2981InvalidDefaultRoyalty",
      "type": "error"
    },
    {
      "inputs": [
        {
          "internalType": "address",
          "name": "receiver",
          "type": "address"
        }
      ],
      "name": "ERC2981InvalidDefaultRoyaltyReceiver",
      "type": "error"
    },
    {
      "inputs": [
        {
          "internalType": "uint256",
          "name": "tokenId",
          "type": "uint256"
        },
        {
          "internalType": "uint256",
          "name": "numerator",
          "type": "uint256"
        },
        {
          "internalType": "uint256",
          "name": "denominator",
          "type": "uint256"
        }
      ],
      "name": "ERC2981InvalidTokenRoyalty",
      "type": "error"
    },
    {
      "inputs": [
        {
          "internalType": "uint256",
          "name": "tokenId",
          "type": "uint256"
        },
        {
          "internalType": "address",
          "name": "receiver",
          "type": "address"
        }
      ],
      "name": "ERC2981InvalidTokenRoyaltyReceiver",
      "type": "error"
    },
    {
      "inputs": [
        {
          "internalType": "address",
          "name": "sender",
          "type": "address"
        },
        {
          "internalType": "uint256",
          "name": "tokenId",
          "type": "uint256"
        },
        {
          "internalType": "address",
          "name": "owner",
          "type": "address"
        }
      ],
      "name": "ERC721IncorrectOwner",
      "type": "error"
    },
    {
      "inputs": [
        {
          "internalType": "address",
          "name": "operator",
          "type": "address"
        },
        {
          "internalType": "uint256",
          "name": "tokenId",
          "type": "uint256"
        }
      ],
      "name": "ERC721InsufficientApproval",
      "type": "error"
    },
    {
      "inputs": [
        {
          "internalType": "address",
          "name": "approver",
          "type": "address"
        }
      ],
      "name": "ERC721InvalidApprover",
      "type": "error"
    },
    {
      "inputs": [
        {
          "internalType": "address",
          "name": "operator",
          "type": "address"
        }
      ],
      "name": "ERC721InvalidOperator",
      "type": "error"
    },
    {
      "inputs": [
        {
          "internalType": "address",
          "name": "owner",
          "type": "address"
        }
      ],
      "name": "ERC721InvalidOwner",
      "type": "error"
    },
    {
      "inputs": [
        {
          "internalType": "address",
          "name": "receiver",
          "type": "address"
        }
      ],
      "name": "ERC721InvalidReceiver",
      "type": "error"
    },
    {
      "inputs": [
        {
          "internalType": "address",
          "name": "sender",
          "type": "address"
        }
      ],
      "name": "ERC721InvalidSender",
      "type": "error"
    },
    {
      "inputs": [
        {
          "internalType": "uint256",
          "name": "tokenId",
          "type": "uint256"
        }
      ],
      "name": "ERC721NonexistentToken",
      "type": "error"
    },
    {
      "inputs": [],
      "name": "EnforcedPause",
      "type": "error"
    },
    {
      "inputs": [],
      "name": "ExpectedPause",
      "type": "error"
    },
    {
      "inputs": [
        {
          "internalType": "address",
          "name": "owner",
          "type": "address"
        }
      ],
      "name": "OwnableInvalidOwner",
      "type": "error"
    },
    {
      "inputs": [
        {
          "internalType": "address",
          "name": "account",
          "type": "address"
        }
      ],
      "name": "OwnableUnauthorizedAccount",
      "type": "error"
    },
    {
      "inputs": [],
      "name": "ReentrancyGuardReentrantCall",
      "type": "error"
    },
    {
      "anonymous": false,
      "inputs": [
        {
          "indexed": true,
          "internalType": "address",
          "name": "owner",
          "type": "address"
        },
        {
          "indexed": true,
          "internalType": "address",
          "name": "approved",
          "type": "address"
        },
        {
          "indexed": true,
          "internalType": "uint256",
          "name": "tokenId",
          "type": "uint256"
        }
      ],
      "name": "Approval",
      "type": "event"
    },
    {
      "anonymous": false,
      "inputs": [
        {
          "indexed": true,
          "internalType": "address",
          "name": "owner",
          "type": "address"
        },
        {
          "indexed": true,
          "internalType": "address",
          "name": "operator",
          "type": "address"
        },
        {
          "indexed": false,
          "internalType": "bool",
          "name": "approved",
          "type": "bool"
        }
      ],
      "name": "ApprovalForAll",
      "type": "event"
    },
    {
      "anonymous": false,
      "inputs": [
        {
          "indexed": true,
          "internalType": "address",
          "name": "previousOwner",
          "type": "address"
        },
        {
          "indexed": true,
          "internalType": "address",
          "name": "newOwner",
          "type": "address"
        }
      ],
      "name": "OwnershipTransferred",
      "type": "event"
    },
    {
      "anonymous": false,
      "inputs": [
        {
          "indexed": false,
          "internalType": "address",
          "name": "account",
          "type": "address"
        }
      ],
      "name": "Paused",
      "type": "event"
    },
    {
      "anonymous": false,
      "inputs": [
        {
          "indexed": false,
          "internalType": "bool",
          "name": "active",
          "type": "bool"
        }
      ],
      "name": "SaleActiveSet",
      "type": "event"
    },
    {
      "anonymous": false,
      "inputs": [
        {
          "indexed": true,
          "internalType": "address",
          "name": "from",
          "type": "address"
        },
        {
          "indexed": true,
          "internalType": "address",
          "name": "to",
          "type": "address"
        },
        {
          "indexed": true,
          "internalType": "uint256",
          "name": "tokenId",
          "type": "uint256"
        }
      ],
      "name": "Transfer",
      "type": "event"
    },
    {
      "anonymous": false,
      "inputs": [
        {
          "indexed": false,
          "internalType": "address",
          "name": "account",
          "type": "address"
        }
      ],
      "name": "Unpaused",
      "type": "event"
    },
    {
      "inputs": [],
      "name": "MAX_SUPPLY",
      "outputs": [
        {
          "internalType": "uint256",
          "name": "",
          "type": "uint256"
        }
      ],
      "stateMutability": "view",
      "type": "function"
    },
    {
      "inputs": [],
      "name": "MINT_INTERVAL",
      "outputs": [
        {
          "internalType": "uint256",
          "name": "",
          "type": "uint256"
        }
      ],
      "stateMutability": "view",
      "type": "function"
    },
    {
      "inputs": [
        {
          "internalType": "address",
          "name": "to",
          "type": "address"
        },
        {
          "internalType": "uint256",
          "name": "tokenId",
          "type": "uint256"
        }
      ],
      "name": "approve",
      "outputs": [],
      "stateMutability": "nonpayable",
      "type": "function"
    },
    {
      "inputs": [
        {
          "internalType": "address",
          "name": "owner",
          "type": "address"
        }
      ],
      "name": "balanceOf",
      "outputs": [
        {
          "internalType": "uint256",
          "name": "",
          "type": "uint256"
        }
      ],
      "stateMutability": "view",
      "type": "function"
    },
    {
      "inputs": [],
      "name": "deleteDefaultRoyalty",
      "outputs": [],
      "stateMutability": "nonpayable",
      "type": "function"
    },
    {
      "inputs": [
        {
          "internalType": "uint256",
          "name": "tokenId",
          "type": "uint256"
        }
      ],
      "name": "getApproved",
      "outputs": [
        {
          "internalType": "address",
          "name": "",
          "type": "address"
        }
      ],
      "stateMutability": "view",
      "type": "function"
    },
    {
      "inputs": [
        {
          "internalType": "address",
          "name": "owner",
          "type": "address"
        },
        {
          "internalType": "address",
          "name": "operator",
          "type": "address"
        }
      ],
      "name": "isApprovedForAll",
      "outputs": [
        {
          "internalType": "bool",
          "name": "",
          "type": "bool"
        }
      ],
      "stateMutability": "view",
      "type": "function"
    },
    {
      "inputs": [
        {
          "internalType": "address",
          "name": "",
          "type": "address"
        }
      ],
      "name": "lastMint",
      "outputs": [
        {
          "internalType": "uint256",
          "name": "",
          "type": "uint256"
        }
      ],
      "stateMutability": "view",
      "type": "function"
    },
    {
      "inputs": [
        {
          "internalType": "uint256",
          "name": "quantity",
          "type": "uint256"
        }
      ],
      "name": "mint",
      "outputs": [],
      "stateMutability": "payable",
      "type": "function"
    },
    {
      "inputs": [],
      "name": "mintPrice",
      "outputs": [
        {
          "internalType": "uint256",
          "name": "",
          "type": "uint256"
        }
      ],
      "stateMutability": "view",
      "type": "function"
    },
    {
      "inputs": [],
      "name": "name",
      "outputs": [
        {
          "internalType": "string",
          "name": "",
          "type": "string"
        }
      ],
      "stateMutability": "view",
      "type": "function"
    },
    {
      "inputs": [],
      "name": "owner",
      "outputs": [
        {
          "internalType": "address",
          "name": "",
          "type": "address"
        }
      ],
      "stateMutability": "view",
      "type": "function"
    },
    {
      "inputs": [
        {
          "internalType": "uint256",
          "name": "tokenId",
          "type": "uint256"
        }
      ],
      "name": "ownerOf",
      "outputs": [
        {
          "internalType": "address",
          "name": "",
          "type": "address"
        }
      ],
      "stateMutability": "view",
      "type": "function"
    },
    {
      "inputs": [],
      "name": "paused",
      "outputs": [
        {
          "internalType": "bool",
          "name": "",
          "type": "bool"
        }
      ],
      "stateMutability": "view",
      "type": "function"
    },
    {
      "inputs": [],
      "name": "renounceOwnership",
      "outputs": [],
      "stateMutability": "nonpayable",
      "type": "function"
    },
    {
      "inputs": [
        {
          "internalType": "uint256",
          "name": "tokenId",
          "type": "uint256"
        },
        {
          "internalType": "uint256",
          "name": "salePrice",
          "type": "uint256"
        }
      ],
      "name": "royaltyInfo",
      "outputs": [
        {
          "internalType": "address",
          "name": "receiver",
          "type": "address"
        },
        {
          "internalType": "uint256",
          "name": "amount",
          "type": "uint256"
        }
      ],
      "stateMutability": "view",
      "type": "function"
    },
    {
      "inputs": [
        {
          "internalType": "address",
          "name": "from",
          "type": "address"
        },
        {
          "internalType": "address",
          "name": "to",
          "type": "address"
        },
        {
          "internalType": "uint256",
          "name": "tokenId",
          "type": "uint256"
        }
      ],
      "name": "safeTransferFrom",
      "outputs": [],
      "stateMutability": "nonpayable",
      "type": "function"
    },
    {
      "inputs": [
        {
          "internalType": "address",
          "name": "from",
          "type": "address"
        },
        {
          "internalType": "address",
          "name": "to",
          "type": "address"
        },
        {
          "internalType": "uint256",
          "name": "tokenId",
          "type": "uint256"
        },
        {
          "internalType": "bytes",
          "name": "data",
          "type": "bytes"
        }
      ],
      "name": "safeTransferFrom",
      "outputs": [],
      "stateMutability": "nonpayable",
      "type": "function"
    },
    {
      "inputs": [],
      "name": "saleActive",
      "outputs": [
        {
          "internalType": "bool",
          "name": "",
          "type": "bool"
        }
      ],
      "stateMutability": "view",
      "type": "function"
    },
    {
      "inputs": [
        {
          "internalType": "address",
          "name": "operator",
          "type": "address"
        },
        {
          "internalType": "bool",
          "name": "approved",
          "type": "bool"
        }
      ],
      "name": "setApprovalForAll",
      "outputs": [],
      "stateMutability": "nonpayable",
      "type": "function"
    },
    {
      "inputs": [
        {
          "internalType": "string",
          "name": "newBaseURI",
          "type": "string"
        }
      ],
      "name": "setBaseURI",
      "outputs": [],
      "stateMutability": "nonpayable",
      "type": "function"
    },
    {
      "inputs": [
        {
          "internalType": "address",
          "name": "receiver",
          "type": "address"
        },
        {
          "internalType": "uint96",
          "name": "bps",
          "type": "uint96"
        }
      ],
      "name": "setDefaultRoyalty",
      "outputs": [],
      "stateMutability": "nonpayable",
      "type": "function"
    },
    {
      "inputs": [
        {
          "internalType": "bool",
          "name": "active",
          "type": "bool"
        }
      ],
      "name": "setSaleActive",
      "outputs": [],
      "stateMutability": "nonpayable",
      "type": "function"
    },
    {
      "inputs": [
        {
          "internalType": "bytes4",
          "name": "interfaceId",
          "type": "bytes4"
        }
      ],
      "name": "supportsInterface",
      "outputs": [
        {
          "internalType": "bool",
          "name": "",
          "type": "bool"
        }
      ],
      "stateMutability": "view",
      "type": "function"
    },
    {
      "inputs": [],
      "name": "symbol",
      "outputs": [
        {
          "internalType": "string",
          "name": "",
          "type": "string"
        }
      ],
      "stateMutability": "view",
      "type": "function"
    },
    {
      "inputs": [
        {
          "internalType": "uint256",
          "name": "tokenId",
          "type": "uint256"
        }
      ],
      "name": "tokenURI",
      "outputs": [
        {
          "internalType": "string",
          "name": "",
          "type": "string"
        }
      ],
      "stateMutability": "view",
      "type": "function"
    },
    {
      "inputs": [],
      "name": "totalSupply",
      "outputs": [
        {
          "internalType": "uint256",
          "name": "",
          "type": "uint256"
        }
      ],
      "stateMutability": "view",
      "type": "function"
    },
    {
      "inputs": [
        {
          "internalType": "address",
          "name": "from",
          "type": "address"
        },
        {
          "internalType": "address",
          "name": "to",
          "type": "address"
        },
        {
          "internalType": "uint256",
          "name": "tokenId",
          "type": "uint256"
        }
      ],
      "name": "transferFrom",
      "outputs": [],
      "stateMutability": "nonpayable",
      "type": "function"
    },
    {
      "inputs": [
        {
          "internalType": "address",
          "name": "newOwner",
          "type": "address"
        }
      ],
      "name": "transferOwnership",
      "outputs": [],
      "stateMutability": "nonpayable",
      "type": "function"
    },
    {
      "inputs": [
        {
          "internalType": "address payable",
          "name": "to",
          "type": "address"
        }
      ],
      "name": "withdraw",
      "outputs": [],
      "stateMutability": "nonpayable",
      "type": "function"
    }
  ],
  "bytecode": "0x60c06040526001600c819055600d805460ff191690911790553480156200002557600080fd5b50604051620022d8380380620022d8833981016040819052620000489162000381565b856040518060400160405280600a81526020016926a92a27232a37b5b2b760b11b8152506040518060400160405280600681526020016513549513919560d21b81525081600290816200009c919062000532565b506003620000ab828262000532565b5050506001600160a01b038116620000de57604051631e4fbdf760e01b8152600060048201526024015b60405180910390fd5b620000e9816200023d565b50600160095583620001305760405162461bcd60e51b815260206004820152600f60248201526e4d41585f535550504c595f5a45524f60881b6044820152606401620000d5565b6000855111620001745760405162461bcd60e51b815260206004820152600e60248201526d424153455f5552495f454d50545960901b6044820152606401620000d5565b6001600160a01b038216620001c15760405162461bcd60e51b81526020600482015260126024820152710524f59414c54595f52454345495645525f360741b6044820152606401620000d5565b6000816001600160601b0316116200020c5760405162461bcd60e51b815260206004820152600d60248201526c0524f59414c54595f4250535f3609c1b6044820152606401620000d5565b608084905260a0839052600b62000224868262000532565b506200023182826200028f565b505050505050620005fe565b600880546001600160a01b038381166001600160a01b0319831681179093556040519116919082907f8be0079c531659141344cd1fd0a4f28419497f9722a3daafe3b4186f6b6457e090600090a35050565b6127106001600160601b038216811015620002d057604051636f483d0960e01b81526001600160601b038316600482015260248101829052604401620000d5565b6001600160a01b038316620002fc57604051635b6cc80560e11b815260006004820152602401620000d5565b50604080518082019091526001600160a01b039092168083526001600160601b039091166020909201829052600160a01b90910217600055565b80516001600160a01b03811681146200034e57600080fd5b919050565b634e487b7160e01b600052604160045260246000fd5b80516001600160601b03811681146200034e57600080fd5b60008060008060008060c087890312156200039b57600080fd5b620003a68762000336565b602088810151919750906001600160401b0380821115620003c657600080fd5b818a0191508a601f830112620003db57600080fd5b815181811115620003f057620003f062000353565b604051601f8201601f19908116603f011681019083821181831017156200041b576200041b62000353565b816040528281528d868487010111156200043457600080fd5b600093505b8284101562000458578484018601518185018701529285019262000439565b6000868483010152809a505050505050506040870151935060608701519250620004856080880162000336565b91506200049560a0880162000369565b90509295509295509295565b600181811c90821680620004b657607f821691505b602082108103620004d757634e487b7160e01b600052602260045260246000fd5b50919050565b601f8211156200052d576000816000526020600020601f850160051c81016020861015620005085750805b601f850160051c820191505b81811015620005295782815560010162000514565b5050505b505050565b81516001600160401b038111156200054e576200054e62000353565b62000566816200055f8454620004a1565b84620004dd565b602080601f8311600181146200059e5760008415620005855750858301515b600019600386901b1c1916600185901b17855562000529565b600085815260208120601f198616915b82811015620005cf57888601518255948401946001909101908401620005ae565b5085821015620005ee5787850151600019600388901b60f8161c191681555b5050505050600190811b01905550565b60805160a051611ca662000632600039600081816104030152610a14015260008181610337015261099f0152611ca66000f3fe6080604052600436106101cd5760003560e01c806368428a1b116100f7578063a0712d6811610095578063b88d4fde11610064578063b88d4fde14610552578063c87b56dd14610572578063e985e9c514610592578063f2fde38b146105b257600080fd5b8063a0712d68146104dd578063a22cb465146104f0578063aa1b103f14610510578063adc20b1c1461052557600080fd5b8063841718a6116100d1578063841718a61461047457806384e7e3d3146104945780638da5cb5b146104aa57806395d89b41146104c857600080fd5b806368428a1b1461042557806370a082311461043f578063715018a61461045f57600080fd5b80632a55205a1161016f57806355f804b31161013e57806355f804b3146103995780635c975abb146103b95780636352211e146103d15780636817c76c146103f157600080fd5b80632a55205a146102e657806332cb6b0c1461032557806342842e0e1461035957806351cff8d91461037957600080fd5b8063081812fc116101ab578063081812fc1461024b578063095ea7b31461028357806318160ddd146102a357806323b872dd146102c657600080fd5b806301ffc9a7146101d257806304634d8d1461020757806306fdde0314610229575b600080fd5b3480156101de57600080fd5b506101f26101ed366004611654565b6105d2565b60405190151581526020015b60405180910390f35b34801561021357600080fd5b50610227610222366004611686565b6105e3565b005b34801561023557600080fd5b5061023e6105f9565b6040516101fe919061171b565b34801561025757600080fd5b5061026b61026636600461172e565b61068b565b6040516001600160a01b0390911681526020016101fe565b34801561028f57600080fd5b5061022761029e366004611747565b6106b4565b3480156102af57600080fd5b506102b86106bf565b6040519081526020016101fe565b3480156102d257600080fd5b506102276102e1366004611773565b6106d5565b3480156102f257600080fd5b506103066103013660046117b4565b610765565b604080516001600160a01b0390931683526020830191909152016101fe565b34801561033157600080fd5b506102b87f000000000000000000000000000000000000000000000000000000000000000081565b34801561036557600080fd5b50610227610374366004611773565b6107ea565b34801561038557600080fd5b506102276103943660046117d6565b61080a565b3480156103a557600080fd5b506102276103b43660046117f3565b6108a7565b3480156103c557600080fd5b50600a5460ff166101f2565b3480156103dd57600080fd5b5061026b6103ec36600461172e565b6108bc565b3480156103fd57600080fd5b506102b87f000000000000000000000000000000000000000000000000000000000000000081565b34801561043157600080fd5b50600d546101f29060ff1681565b34801561044b57600080fd5b506102b861045a3660046117d6565b6108c7565b34801561046b57600080fd5b5061022761090f565b34801561048057600080fd5b5061022761048f36600461187a565b610923565b3480156104a057600080fd5b506102b8610e1081565b3480156104b657600080fd5b506008546001600160a01b031661026b565b3480156104d457600080fd5b5061023e610943565b6102276104eb36600461172e565b610952565b3480156104fc57600080fd5b5061022761050b366004611895565b610b78565b34801561051c57600080fd5b50610227610b83565b34801561053157600080fd5b506102b86105403660046117d6565b600e6020526000908152604090205481565b34801561055e57600080fd5b5061022761056d3660046118e0565b610b94565b34801561057e57600080fd5b5061023e61058d36600461172e565b610bac565b34801561059e57600080fd5b506101f26105ad3660046119c0565b610bdd565b3480156105be57600080fd5b506102276105cd3660046117d6565b610c0b565b60006105dd82610c46565b92915050565b6105eb610c51565b6105f58282610c7e565b5050565b606060028054610608906119ee565b80601f0160208091040260200160405190810160405280929190818152602001828054610634906119ee565b80156106815780601f1061065657610100808354040283529160200191610681565b820191906000526020600020905b81548152906001019060200180831161066457829003601f168201915b5050505050905090565b600061069682610d21565b506000828152600660205260409020546001600160a01b03166105dd565b6105f5828233610d5a565b60006001600c546106d09190611a3e565b905090565b6001600160a01b03821661070457604051633250574960e11b8152600060048201526024015b60405180910390fd5b6000610711838333610d67565b9050836001600160a01b0316816001600160a01b03161461075f576040516364283d7b60e01b81526001600160a01b03808616600483015260248201849052821660448201526064016106fb565b50505050565b600082815260016020526040812080548291906001600160a01b03811690600160a01b90046001600160601b0316816107b95750506000546001600160a01b03811690600160a01b90046001600160601b03165b60006127106107d16001600160601b03841689611a51565b6107db9190611a68565b92989297509195505050505050565b61080583838360405180602001604052806000815250610b94565b505050565b610812610c51565b6000816001600160a01b03164760405160006040518083038185875af1925050503d806000811461085f576040519150601f19603f3d011682016040523d82523d6000602084013e610864565b606091505b50509050806105f55760405162461bcd60e51b815260206004820152600f60248201526e15d2551211149055d7d19052531151608a1b60448201526064016106fb565b6108af610c51565b600b610805828483611ad2565b60006105dd82610d21565b60006001600160a01b0382166108f3576040516322718ad960e21b8152600060048201526024016106fb565b506001600160a01b031660009081526005602052604090205490565b610917610c51565b6109216000610e60565b565b61092b610c51565b8061093b57610938610eb2565b50565b610938610f0c565b606060038054610608906119ee565b61095a610f45565b610962610f69565b6000811161099d5760405162461bcd60e51b81526020600482015260086024820152675154595f5a45524f60c01b60448201526064016106fb565b7f0000000000000000000000000000000000000000000000000000000000000000816109c76106bf565b6109d19190611b92565b1115610a0c5760405162461bcd60e51b815260206004820152600a6024820152694d41585f535550504c5960b01b60448201526064016106fb565b6000610a38827f0000000000000000000000000000000000000000000000000000000000000000611a51565b905080341015610a7d5760405162461bcd60e51b815260206004820152601060248201526f0929ca6aa8c8c9286928a9ca8be8aa8960831b60448201526064016106fb565b336000908152600e6020526040902054610a9a90610e1090611b92565b421015610ad95760405162461bcd60e51b815260206004820152600d60248201526c26a4a72a2faa27a7afa9a7a7a760991b60448201526064016106fb565b60005b82811015610b0b57600c8054610b03913391906000610afa83611ba5565b91905055610f93565b600101610adc565b506000610b188234611a3e565b90508015610b6c57604051600090339083908381818185875af1925050503d8060008114610b62576040519150601f19603f3d011682016040523d82523d6000602084013e610b67565b606091505b505050505b50506109386001600955565b6105f5338383610fad565b610b8b610c51565b61092160008055565b610b9f8484846106d5565b61075f338585858561104c565b6060610bb782611177565b604051602001610bc79190611bbe565b6040516020818303038152906040529050919050565b6001600160a01b03918216600090815260076020908152604080832093909416825291909152205460ff1690565b610c13610c51565b6001600160a01b038116610c3d57604051631e4fbdf760e01b8152600060048201526024016106fb565b61093881610e60565b60006105dd826111df565b6008546001600160a01b031633146109215760405163118cdaa760e01b81523360048201526024016106fb565b6127106001600160601b038216811015610cbd57604051636f483d0960e01b81526001600160601b0383166004820152602481018290526044016106fb565b6001600160a01b038316610ce757604051635b6cc80560e11b8152600060048201526024016106fb565b50604080518082019091526001600160a01b039092168083526001600160601b039091166020909201829052600160a01b90910217600055565b6000818152600460205260408120546001600160a01b0316806105dd57604051637e27328960e01b8152600481018490526024016106fb565b610805838383600161121f565b6000828152600460205260408120546001600160a01b0390811690831615610d9457610d94818486611325565b6001600160a01b03811615610dd257610db160008560008061121f565b6001600160a01b038116600090815260056020526040902080546000190190555b6001600160a01b03851615610e01576001600160a01b0385166000908152600560205260409020805460010190555b60008481526004602052604080822080546001600160a01b0319166001600160a01b0389811691821790925591518793918516917fddf252ad1be2c89b69c2b068fc378daa952ba7f163c4a11628f55a4df523b3ef91a4949350505050565b600880546001600160a01b038381166001600160a01b0319831681179093556040519116919082907f8be0079c531659141344cd1fd0a4f28419497f9722a3daafe3b4186f6b6457e090600090a35050565b610eba610f45565b600a805460ff191660011790557f62e78cea01bee320cd4e420270b5ea74000d11b0c9f74754ebdbfc544b05a258610eef3390565b6040516001600160a01b03909116815260200160405180910390a1565b610f14611389565b600a805460ff191690557f5db9ee0a495bf2e6ff9c91a7834c1ba4fdd244a5e8aa4e537bd38aeae4b073aa33610eef565b600a5460ff16156109215760405163d93c066560e01b815260040160405180910390fd5b600260095403610f8c57604051633ee5aeb560e01b815260040160405180910390fd5b6002600955565b6105f58282604051806020016040528060008152506113ac565b6001600160a01b038216610fdf57604051630b61174360e31b81526001600160a01b03831660048201526024016106fb565b6001600160a01b03838116600081815260076020908152604080832094871680845294825291829020805460ff191686151590811790915591519182527f17307eab39ab6107e8899845ad3d59bd9653f200f220920489ca2b5937696c31910160405180910390a3505050565b6001600160a01b0383163b1561117057604051630a85bd0160e11b81526001600160a01b0384169063150b7a029061108e908890889087908790600401611be7565b6020604051808303816000875af19250505080156110c9575060408051601f3d908101601f191682019092526110c691810190611c24565b60015b611132573d8080156110f7576040519150601f19603f3d011682016040523d82523d6000602084013e6110fc565b606091505b50805160000361112a57604051633250574960e11b81526001600160a01b03851660048201526024016106fb565b805160208201fd5b6001600160e01b03198116630a85bd0160e11b1461116e57604051633250574960e11b81526001600160a01b03851660048201526024016106fb565b505b5050505050565b606061118282610d21565b50600061118d6113c4565b905060008151116111ad57604051806020016040528060008152506111d8565b806111b7846113d3565b6040516020016111c8929190611c41565b6040516020818303038152906040525b9392505050565b60006001600160e01b031982166380ac58cd60e01b148061121057506001600160e01b03198216635b5e139f60e01b145b806105dd57506105dd82611466565b808061123357506001600160a01b03821615155b156112f557600061124384610d21565b90506001600160a01b0383161580159061126f5750826001600160a01b0316816001600160a01b031614155b801561128257506112808184610bdd565b155b156112ab5760405163a9fbf51f60e01b81526001600160a01b03841660048201526024016106fb565b81156112f35783856001600160a01b0316826001600160a01b03167f8c5be1e5ebec7d5bd14f71427d1e84f3dd0314c0f7b2291e5b200ac8c7c3b92560405160405180910390a45b505b5050600090815260066020526040902080546001600160a01b0319166001600160a01b0392909216919091179055565b61133083838361149b565b610805576001600160a01b03831661135e57604051637e27328960e01b8152600481018290526024016106fb565b60405163177e802f60e01b81526001600160a01b0383166004820152602481018290526044016106fb565b600a5460ff1661092157604051638dfc202b60e01b815260040160405180910390fd5b6113b68383611501565b61080533600085858561104c565b6060600b8054610608906119ee565b606060006113e083611566565b600101905060008167ffffffffffffffff811115611400576114006118ca565b6040519080825280601f01601f19166020018201604052801561142a576020820181803683370190505b5090508181016020015b600019016f181899199a1a9b1b9c1cb0b131b232b360811b600a86061a8153600a850494508461143457509392505050565b60006001600160e01b0319821663152a902d60e11b14806105dd57506301ffc9a760e01b6001600160e01b03198316146105dd565b60006001600160a01b038316158015906114f95750826001600160a01b0316846001600160a01b031614806114d557506114d58484610bdd565b806114f957506000828152600660205260409020546001600160a01b038481169116145b949350505050565b6001600160a01b03821661152b57604051633250574960e11b8152600060048201526024016106fb565b600061153983836000610d67565b90506001600160a01b03811615610805576040516339e3563760e11b8152600060048201526024016106fb565b60008072184f03e93ff9f4daa797ed6e38ed64bf6a1f0160401b83106115a55772184f03e93ff9f4daa797ed6e38ed64bf6a1f0160401b830492506040015b6d04ee2d6d415b85acef810000000083106115d1576d04ee2d6d415b85acef8100000000830492506020015b662386f26fc1000083106115ef57662386f26fc10000830492506010015b6305f5e1008310611607576305f5e100830492506008015b612710831061161b57612710830492506004015b6064831061162d576064830492506002015b600a83106105dd5760010192915050565b6001600160e01b03198116811461093857600080fd5b60006020828403121561166657600080fd5b81356111d88161163e565b6001600160a01b038116811461093857600080fd5b6000806040838503121561169957600080fd5b82356116a481611671565b915060208301356001600160601b03811681146116c057600080fd5b809150509250929050565b60005b838110156116e65781810151838201526020016116ce565b50506000910152565b600081518084526117078160208601602086016116cb565b601f01601f19169290920160200192915050565b6020815260006111d860208301846116ef565b60006020828403121561174057600080fd5b5035919050565b6000806040838503121561175a57600080fd5b823561176581611671565b946020939093013593505050565b60008060006060848603121561178857600080fd5b833561179381611671565b925060208401356117a381611671565b929592945050506040919091013590565b600080604083850312156117c757600080fd5b50508035926020909101359150565b6000602082840312156117e857600080fd5b81356111d881611671565b6000806020838503121561180657600080fd5b823567ffffffffffffffff8082111561181e57600080fd5b818501915085601f83011261183257600080fd5b81358181111561184157600080fd5b86602082850101111561185357600080fd5b60209290920196919550909350505050565b8035801515811461187557600080fd5b919050565b60006020828403121561188c57600080fd5b6111d882611865565b600080604083850312156118a857600080fd5b82356118b381611671565b91506118c160208401611865565b90509250929050565b634e487b7160e01b600052604160045260246000fd5b600080600080608085870312156118f657600080fd5b843561190181611671565b9350602085013561191181611671565b925060408501359150606085013567ffffffffffffffff8082111561193557600080fd5b818701915087601f83011261194957600080fd5b81358181111561195b5761195b6118ca565b604051601f8201601f19908116603f01168101908382118183101715611983576119836118ca565b816040528281528a602084870101111561199c57600080fd5b82602086016020830137600060208483010152809550505050505092959194509250565b600080604083850312156119d357600080fd5b82356119de81611671565b915060208301356116c081611671565b600181811c90821680611a0257607f821691505b602082108103611a2257634e487b7160e01b600052602260045260246000fd5b50919050565b634e487b7160e01b600052601160045260246000fd5b818103818111156105dd576105dd611a28565b80820281158282048414176105dd576105dd611a28565b600082611a8557634e487b7160e01b600052601260045260246000fd5b500490565b601f821115610805576000816000526020600020601f850160051c81016020861015611ab35750805b601f850160051c820191505b8181101561116e57828155600101611abf565b67ffffffffffffffff831115611aea57611aea6118ca565b611afe83611af883546119ee565b83611a8a565b6000601f841160018114611b325760008515611b1a5750838201355b600019600387901b1c1916600186901b178355611170565b600083815260209020601f19861690835b82811015611b635786850135825560209485019460019092019101611b43565b5086821015611b805760001960f88860031b161c19848701351681555b505060018560011b0183555050505050565b808201808211156105dd576105dd611a28565b600060018201611bb757611bb7611a28565b5060010190565b60008251611bd08184602087016116cb565b64173539b7b760d91b920191825250600501919050565b6001600160a01b0385811682528416602082015260408101839052608060608201819052600090611c1a908301846116ef565b9695505050505050565b600060208284031215611c3657600080fd5b81516111d88161163e565b60008351611c538184602088016116cb565b835190830190611c678183602088016116cb565b0194935050505056fea2646970667358221220fa152af6ac47bd65b467a01e1d3dfc51998df51642fdc12692cf079a250218c064736f6c63430008180033",
  "linkReferences": {},
  "deployedLinkReferences": {}
}